{
  "contractName": "PixelToken",
  "abi": [
    {
      "inputs": [],
      "stateMutability": "nonpayable",
      "type": "constructor"
    },
    {
      "anonymous": false,
      "inputs": [
        {
          "indexed": false,
          "internalType": "uint256",
          "name": "id",
          "type": "uint256"
        }
      ],
      "name": "newTokenCreated",
      "type": "event"
    },
    {
      "anonymous": false,
      "inputs": [
        {
          "indexed": false,
          "internalType": "uint256",
          "name": "_pixelId",
          "type": "uint256"
        },
        {
          "indexed": false,
          "internalType": "address",
          "name": "_newOwner",
          "type": "address"
        }
      ],
      "name": "pixelBought",
      "type": "event"
    },
    {
      "anonymous": false,
      "inputs": [
        {
          "indexed": false,
          "internalType": "uint256",
          "name": "_id",
          "type": "uint256"
        },
        {
          "indexed": false,
          "internalType": "uint256",
          "name": "_price",
          "type": "uint256"
        },
        {
          "indexed": false,
          "internalType": "address",
          "name": "_newOwner",
          "type": "address"
        }
      ],
      "name": "pixelBoughtOnSale",
      "type": "event"
    },
    {
      "anonymous": false,
      "inputs": [
        {
          "indexed": false,
          "internalType": "uint256",
          "name": "_idPixel",
          "type": "uint256"
        },
        {
          "indexed": false,
          "internalType": "uint256",
          "name": "_newWeiPice",
          "type": "uint256"
        }
      ],
      "name": "pixelPriceModified",
      "type": "event"
    },
    {
      "anonymous": false,
      "inputs": [
        {
          "indexed": false,
          "internalType": "uint256",
          "name": "_id",
          "type": "uint256"
        },
        {
          "indexed": false,
          "internalType": "uint256",
          "name": "_price",
          "type": "uint256"
        },
        {
          "indexed": false,
          "internalType": "address",
          "name": "_sellerAddress",
          "type": "address"
        }
      ],
      "name": "pixelSetForSale",
      "type": "event"
    },
    {
      "anonymous": false,
      "inputs": [
        {
          "indexed": false,
          "internalType": "uint256",
          "name": "id",
          "type": "uint256"
        },
        {
          "indexed": false,
          "internalType": "uint256",
          "name": "newPrice",
          "type": "uint256"
        }
      ],
      "name": "tokenPriceModified",
      "type": "event"
    },
    {
      "inputs": [],
      "name": "nbOfPixels",
      "outputs": [
        {
          "internalType": "uint256",
          "name": "",
          "type": "uint256"
        }
      ],
      "stateMutability": "view",
      "type": "function",
      "constant": true
    },
    {
      "inputs": [
        {
          "internalType": "uint256",
          "name": "",
          "type": "uint256"
        },
        {
          "internalType": "uint256",
          "name": "",
          "type": "uint256"
        }
      ],
      "name": "pairNotAvailable",
      "outputs": [
        {
          "internalType": "bool",
          "name": "",
          "type": "bool"
        }
      ],
      "stateMutability": "view",
      "type": "function",
      "constant": true
    },
    {
      "inputs": [
        {
          "internalType": "uint256",
          "name": "",
          "type": "uint256"
        }
      ],
      "name": "pixelForSale",
      "outputs": [
        {
          "internalType": "uint256",
          "name": "id",
          "type": "uint256"
        },
        {
          "internalType": "uint256",
          "name": "line",
          "type": "uint256"
        },
        {
          "internalType": "uint256",
          "name": "column",
          "type": "uint256"
        },
        {
          "internalType": "address payable",
          "name": "owner",
          "type": "address"
        },
        {
          "internalType": "uint256",
          "name": "priceWEI",
          "type": "uint256"
        },
        {
          "internalType": "bool",
          "name": "isAvailableForSale",
          "type": "bool"
        },
        {
          "internalType": "bool",
          "name": "hasBeenCreated",
          "type": "bool"
        }
      ],
      "stateMutability": "view",
      "type": "function",
      "constant": true
    },
    {
      "inputs": [
        {
          "internalType": "uint256",
          "name": "",
          "type": "uint256"
        }
      ],
      "name": "pixelList",
      "outputs": [
        {
          "internalType": "uint256",
          "name": "id",
          "type": "uint256"
        },
        {
          "internalType": "uint256",
          "name": "line",
          "type": "uint256"
        },
        {
          "internalType": "uint256",
          "name": "column",
          "type": "uint256"
        },
        {
          "internalType": "address payable",
          "name": "owner",
          "type": "address"
        },
        {
          "internalType": "uint256",
          "name": "priceWEI",
          "type": "uint256"
        },
        {
          "internalType": "bool",
          "name": "isAvailableForSale",
          "type": "bool"
        },
        {
          "internalType": "bool",
          "name": "hasBeenCreated",
          "type": "bool"
        }
      ],
      "stateMutability": "view",
      "type": "function",
      "constant": true
    },
    {
      "inputs": [],
      "name": "symbol",
      "outputs": [
        {
          "internalType": "string",
          "name": "",
          "type": "string"
        }
      ],
      "stateMutability": "view",
      "type": "function",
      "constant": true
    },
    {
      "inputs": [
        {
          "internalType": "uint256",
          "name": "line",
          "type": "uint256"
        },
        {
          "internalType": "uint256",
          "name": "column",
          "type": "uint256"
        }
      ],
      "name": "getInitialPixelPrice",
      "outputs": [
        {
          "internalType": "uint256",
          "name": "",
          "type": "uint256"
        }
      ],
      "stateMutability": "view",
      "type": "function",
      "constant": true
    },
    {
      "inputs": [
        {
          "internalType": "uint256",
          "name": "_line",
          "type": "uint256"
        },
        {
          "internalType": "uint256",
          "name": "_column",
          "type": "uint256"
        },
        {
          "internalType": "bool",
          "name": "_onSale",
          "type": "bool"
        }
      ],
      "name": "createPixel",
      "outputs": [],
      "stateMutability": "nonpayable",
      "type": "function"
    },
    {
      "inputs": [
        {
          "internalType": "uint256",
          "name": "_pixelId",
          "type": "uint256"
        }
      ],
      "name": "getPixelLine",
      "outputs": [
        {
          "internalType": "uint256",
          "name": "",
          "type": "uint256"
        }
      ],
      "stateMutability": "view",
      "type": "function",
      "constant": true
    },
    {
      "inputs": [
        {
          "internalType": "uint256",
          "name": "_pixelId",
          "type": "uint256"
        }
      ],
      "name": "getPixelCol",
      "outputs": [
        {
          "internalType": "uint256",
          "name": "",
          "type": "uint256"
        }
      ],
      "stateMutability": "view",
      "type": "function",
      "constant": true
    },
    {
      "inputs": [
        {
          "internalType": "uint256",
          "name": "_pixelId",
          "type": "uint256"
        }
      ],
      "name": "buyPixel",
      "outputs": [],
      "stateMutability": "payable",
      "type": "function",
      "payable": true
    },
    {
      "inputs": [
        {
          "internalType": "uint256",
          "name": "_line",
          "type": "uint256"
        },
        {
          "internalType": "uint256",
          "name": "_column",
          "type": "uint256"
        }
      ],
      "name": "searchTokenByCoord",
      "outputs": [
        {
          "internalType": "int256",
          "name": "",
          "type": "int256"
        }
      ],
      "stateMutability": "view",
      "type": "function",
      "constant": true
    },
    {
      "inputs": [
        {
          "internalType": "uint256",
          "name": "_idPixel",
          "type": "uint256"
        },
        {
          "internalType": "uint256",
          "name": "_newWeiPice",
          "type": "uint256"
        }
      ],
      "name": "modifyPixelPrice",
      "outputs": [],
      "stateMutability": "nonpayable",
      "type": "function"
    },
    {
      "inputs": [
        {
          "internalType": "uint256",
          "name": "_idPixel",
          "type": "uint256"
        }
      ],
      "name": "setPixelForSale",
      "outputs": [],
      "stateMutability": "nonpayable",
      "type": "function"
    },
    {
      "inputs": [
        {
          "internalType": "uint256",
          "name": "_pixelId",
          "type": "uint256"
        },
        {
          "internalType": "address payable",
          "name": "_pixelOwner",
          "type": "address"
        },
        {
          "internalType": "uint256",
          "name": "_weiPrice",
          "type": "uint256"
        }
      ],
      "name": "buyPixelForSale",
      "outputs": [],
      "stateMutability": "nonpayable",
      "type": "function"
    }
  ],
  "bytecode": "0x608060405260006001556040518060600160405280600a60ff168152602001601460ff168152602001603260ff16815250600390600362000042929190620000a3565b503480156200005057600080fd5b5033600260006101000a81548173ffffffffffffffffffffffffffffffffffffffff021916908373ffffffffffffffffffffffffffffffffffffffff1602179055506103e8800260008190555062000122565b828054828255906000526020600020908101928215620000e7579160200282015b82811115620000e6578251829060ff16905591602001919060010190620000c4565b5b509050620000f69190620000fa565b5090565b6200011f91905b808211156200011b57600081600090555060010162000101565b5090565b90565b611d0980620001326000396000f3fe6080604052600436106100dd5760003560e01c80635e23aa251161007f578063847c953711610059578063847c9537146104b657806395d89b41146104f1578063e75fa06e14610581578063f2087869146105af576100dd565b80635e23aa25146103c957806367856c581461042e57806375d46a5014610459576100dd565b80633c2e36b2116100bb5780633c2e36b21461028b5780633db6d1c9146102da578063452a7a8d1461033357806351dddbf314610384576100dd565b80631a55745c146100e257806325471143146101315780633a631ff7146101de575b600080fd5b3480156100ee57600080fd5b5061011b6004803603602081101561010557600080fd5b8101908080359060200190929190505050610608565b6040518082815260200191505060405180910390f35b34801561013d57600080fd5b5061016a6004803603602081101561015457600080fd5b8101908080359060200190929190505050610697565b604051808881526020018781526020018681526020018573ffffffffffffffffffffffffffffffffffffffff1673ffffffffffffffffffffffffffffffffffffffff168152602001848152602001831515151581526020018215151515815260200197505050505050505060405180910390f35b3480156101ea57600080fd5b506102176004803603602081101561020157600080fd5b8101908080359060200190929190505050610713565b604051808881526020018781526020018681526020018573ffffffffffffffffffffffffffffffffffffffff1673ffffffffffffffffffffffffffffffffffffffff168152602001848152602001831515151581526020018215151515815260200197505050505050505060405180910390f35b34801561029757600080fd5b506102c4600480360360208110156102ae57600080fd5b810190808035906020019092919050505061078f565b6040518082815260200191505060405180910390f35b3480156102e657600080fd5b5061031d600480360360408110156102fd57600080fd5b81019080803590602001909291908035906020019092919050505061081e565b6040518082815260200191505060405180910390f35b34801561033f57600080fd5b506103826004803603606081101561035657600080fd5b810190808035906020019092919080359060200190929190803515159060200190929190505050610951565b005b34801561039057600080fd5b506103c7600480360360408110156103a757600080fd5b810190808035906020019092919080359060200190929190505050610e3f565b005b3480156103d557600080fd5b5061042c600480360360608110156103ec57600080fd5b8101908080359060200190929190803573ffffffffffffffffffffffffffffffffffffffff16906020019092919080359060200190929190505050610f59565b005b34801561043a57600080fd5b506104436112ea565b6040518082815260200191505060405180910390f35b34801561046557600080fd5b5061049c6004803603604081101561047c57600080fd5b8101908080359060200190929190803590602001909291905050506112f0565b604051808215151515815260200191505060405180910390f35b3480156104c257600080fd5b506104ef600480360360208110156104d957600080fd5b810190808035906020019092919050505061131f565b005b3480156104fd57600080fd5b506105066115a8565b6040518080602001828103825283818151815260200191508051906020019080838360005b8381101561054657808201518184015260208101905061052b565b50505050905090810190601f1680156105735780820380516001836020036101000a031916815260200191505b509250505060405180910390f35b6105ad6004803603602081101561059757600080fd5b81019080803590602001909291905050506115e1565b005b3480156105bb57600080fd5b506105f2600480360360408110156105d257600080fd5b810190808035906020019092919080359060200190929190505050611929565b6040518082815260200191505060405180910390f35b60008060056000848152602001908152602001600020600001541415610679576040517f08c379a0000000000000000000000000000000000000000000000000000000008152600401808060200182810382526021815260200180611c1c6021913960400191505060405180910390fd5b60056000838152602001908152602001600020600101549050919050565b60066020528060005260406000206000915090508060000154908060010154908060020154908060030160009054906101000a900473ffffffffffffffffffffffffffffffffffffffff16908060040154908060050160009054906101000a900460ff16908060050160019054906101000a900460ff16905087565b60056020528060005260406000206000915090508060000154908060010154908060020154908060030160009054906101000a900473ffffffffffffffffffffffffffffffffffffffff16908060040154908060050160009054906101000a900460ff16908060050160019054906101000a900460ff16905087565b60008060056000848152602001908152602001600020600001541415610800576040517f08c379a0000000000000000000000000000000000000000000000000000000008152600401808060200182810382526021815260200180611c1c6021913960400191505060405180910390fd5b60056000838152602001908152602001600020600201549050919050565b6000807fffffffffffffffffffffffffffffffffffffffffffffffffffffffffffffffff905060008090505b6000548160ff1610156108b05784600560008360ff16815260200190815260200160002060010154148015610897575083600560008360ff16815260200190815260200160002060020154145b156108a3578060ff1691505b808060010191505061084a565b507fffffffffffffffffffffffffffffffffffffffffffffffffffffffffffffffff811415610947576040517f08c379a00000000000000000000000000000000000000000000000000000000081526004018080602001828103825260178152602001807f4572726f722c20706978656c206e6f7420666f756e642e00000000000000000081525060200191505060405180910390fd5b8091505092915050565b600054600154106109ca576040517f08c379a000000000000000000000000000000000000000000000000000000000815260040180806020018281038252601f8152602001807f4572726f722c2063616e277420637265617465206d6f726520706978656c2e0081525060200191505060405180910390fd5b8260001080156109db57506103e883105b80156109e75750816000105b80156109f457506103e882105b610a49576040517f08c379a000000000000000000000000000000000000000000000000000000000815260040180806020018281038252602c815260200180611ca8602c913960400191505060405180910390fd5b6000151560076000858152602001908152602001600020600084815260200190815260200160002060009054906101000a900460ff16151514610ad7576040517f08c379a0000000000000000000000000000000000000000000000000000000008152600401808060200182810382526026815260200180611b6b6026913960400191505060405180910390fd5b600160008154809291906001019190505550610af1611adc565b6001548160000181815250508381602001818152505082816040018181525050600260009054906101000a900473ffffffffffffffffffffffffffffffffffffffff16816060019073ffffffffffffffffffffffffffffffffffffffff16908173ffffffffffffffffffffffffffffffffffffffff1681525050610b758484611929565b81608001818152505060018160c0019015159081151581525050600115158215151415610cf75760018160a001901515908115158152505080600660008360000151815260200190815260200160002060008201518160000155602082015181600101556040820151816002015560608201518160030160006101000a81548173ffffffffffffffffffffffffffffffffffffffff021916908373ffffffffffffffffffffffffffffffffffffffff1602179055506080820151816004015560a08201518160050160006101000a81548160ff02191690831515021790555060c08201518160050160016101000a81548160ff0219169083151502179055509050507fe5e1a9ef71a30d6b839c4cc3c4543c08a8cd006b5b1a5e189fedb4d981044b43816000015182608001518360600151604051808481526020018381526020018273ffffffffffffffffffffffffffffffffffffffff1673ffffffffffffffffffffffffffffffffffffffff168152602001935050505060405180910390a15b80600560008360000151815260200190815260200160002060008201518160000155602082015181600101556040820151816002015560608201518160030160006101000a81548173ffffffffffffffffffffffffffffffffffffffff021916908373ffffffffffffffffffffffffffffffffffffffff1602179055506080820151816004015560a08201518160050160006101000a81548160ff02191690831515021790555060c08201518160050160016101000a81548160ff021916908315150217905550905050600160076000868152602001908152602001600020600085815260200190815260200160002060006101000a81548160ff0219169083151502179055507fcdaa82983bd4f11a293abc7990c1dab2053837543a3e15e484d8b08298c1579081600001516040518082815260200191505060405180910390a150505050565b813373ffffffffffffffffffffffffffffffffffffffff166005600083815260200190815260200160002060030160009054906101000a900473ffffffffffffffffffffffffffffffffffffffff1673ffffffffffffffffffffffffffffffffffffffff1614610efa576040517f08c379a0000000000000000000000000000000000000000000000000000000008152600401808060200182810382526024815260200180611c3d6024913960400191505060405180910390fd5b8160056000858152602001908152602001600020600401819055507fa09e2f508e359513bc61fe0ce1336110b13100fc7054ec0bd521b314fe6cc7a28383604051808381526020018281526020019250505060405180910390a1505050565b82600115156005600083815260200190815260200160002060050160009054906101000a900460ff16151514610fda576040517f08c379a0000000000000000000000000000000000000000000000000000000008152600401808060200182810382526036815260200180611be66036913960400191505060405180910390fd5b8382806005600084815260200190815260200160002060040154111561104b576040517f08c379a0000000000000000000000000000000000000000000000000000000008152600401808060200182810382526037815260200180611b346037913960400191505060405180910390fd5b85858073ffffffffffffffffffffffffffffffffffffffff166005600084815260200190815260200160002060030160009054906101000a900473ffffffffffffffffffffffffffffffffffffffff1673ffffffffffffffffffffffffffffffffffffffff1614611107576040517f08c379a000000000000000000000000000000000000000000000000000000000815260040180806020018281038252602a815260200180611bbc602a913960400191505060405180910390fd5b8673ffffffffffffffffffffffffffffffffffffffff166108fc879081150290604051600060405180830381858888f1935050505015801561114d573d6000803e3d6000fd5b5033600560008a815260200190815260200160002060030160006101000a81548173ffffffffffffffffffffffffffffffffffffffff021916908373ffffffffffffffffffffffffffffffffffffffff1602179055506000600560008a815260200190815260200160002060050160006101000a81548160ff02191690831515021790555060066000898152602001908152602001600020600080820160009055600182016000905560028201600090556003820160006101000a81549073ffffffffffffffffffffffffffffffffffffffff021916905560048201600090556005820160006101000a81549060ff02191690556005820160016101000a81549060ff021916905550507f6b0c0944bd97ee49c5b66d036a1381a855da2604da8044d1d5318a0193150bb188600560008b81526020019081526020016000206004015433604051808481526020018381526020018273ffffffffffffffffffffffffffffffffffffffff1673ffffffffffffffffffffffffffffffffffffffff168152602001935050505060405180910390a15050505050505050565b60015481565b60076020528160005260406000206020528060005260406000206000915091509054906101000a900460ff1681565b803373ffffffffffffffffffffffffffffffffffffffff166005600083815260200190815260200160002060030160009054906101000a900473ffffffffffffffffffffffffffffffffffffffff1673ffffffffffffffffffffffffffffffffffffffff16146113da576040517f08c379a0000000000000000000000000000000000000000000000000000000008152600401808060200182810382526024815260200180611c3d6024913960400191505060405180910390fd5b60016005600084815260200190815260200160002060050160006101000a81548160ff02191690831515021790555060056000838152602001908152602001600020600660008481526020019081526020016000206000820154816000015560018201548160010155600282015481600201556003820160009054906101000a900473ffffffffffffffffffffffffffffffffffffffff168160030160006101000a81548173ffffffffffffffffffffffffffffffffffffffff021916908373ffffffffffffffffffffffffffffffffffffffff160217905550600482015481600401556005820160009054906101000a900460ff168160050160006101000a81548160ff0219169083151502179055506005820160019054906101000a900460ff168160050160016101000a81548160ff0219169083151502179055509050507fe5e1a9ef71a30d6b839c4cc3c4543c08a8cd006b5b1a5e189fedb4d981044b4382600560008581526020019081526020016000206004015433604051808481526020018381526020018273ffffffffffffffffffffffffffffffffffffffff1673ffffffffffffffffffffffffffffffffffffffff168152602001935050505060405180910390a15050565b6040518060400160405280600381526020017f50584c000000000000000000000000000000000000000000000000000000000081525081565b80600115156005600083815260200190815260200160002060050160009054906101000a900460ff16151514611662576040517f08c379a0000000000000000000000000000000000000000000000000000000008152600401808060200182810382526036815260200180611be66036913960400191505060405180910390fd5b8134600560008381526020019081526020016000206004015411156116d2576040517f08c379a0000000000000000000000000000000000000000000000000000000008152600401808060200182810382526037815260200180611b346037913960400191505060405180910390fd5b82600260009054906101000a900473ffffffffffffffffffffffffffffffffffffffff1673ffffffffffffffffffffffffffffffffffffffff166005600083815260200190815260200160002060030160009054906101000a900473ffffffffffffffffffffffffffffffffffffffff1673ffffffffffffffffffffffffffffffffffffffff16146117af576040517f08c379a000000000000000000000000000000000000000000000000000000000815260040180806020018281038252602b815260200180611b91602b913960400191505060405180910390fd5b336005600086815260200190815260200160002060030160006101000a81548173ffffffffffffffffffffffffffffffffffffffff021916908373ffffffffffffffffffffffffffffffffffffffff16021790555060006005600086815260200190815260200160002060050160006101000a81548160ff02191690831515021790555060066000858152602001908152602001600020600080820160009055600182016000905560028201600090556003820160006101000a81549073ffffffffffffffffffffffffffffffffffffffff021916905560048201600090556005820160006101000a81549060ff02191690556005820160016101000a81549060ff021916905550507fd50965627b0e9af76342bd7cf8acbaa6ec0f3467cb3b6d976fe4f7619b25d8a58433604051808381526020018273ffffffffffffffffffffffffffffffffffffffff1673ffffffffffffffffffffffffffffffffffffffff1681526020019250505060405180910390a150505050565b6000808311801561193a5750600082115b801561194857506103e88311155b801561195657506103e88211155b6119ab576040517f08c379a0000000000000000000000000000000000000000000000000000000008152600401808060200182810382526047815260200180611c616047913960600191505060405180910390fd5b6000809050607d841115806119c157508361036b105b806119cd5750607d8311155b806119d957508261036b105b156119fe5760036000815481106119ec57fe5b90600052602060002001549050611ad2565b83607d108015611a10575061036b8411155b8015611a1c575082607d105b8015611a29575061017783105b80611a5d575083607d108015611a41575061036b8411155b8015611a4e575082610271105b8015611a5c575061036b8311155b5b15611a82576003600181548110611a7057fe5b90600052602060002001549050611ad1565b83607d108015611a94575061036b8411155b8015611aa1575082610177105b8015611aaf57506102718311155b15611ad0576003600281548110611ac257fe5b906000526020600020015490505b5b5b8091505092915050565b6040518060e00160405280600081526020016000815260200160008152602001600073ffffffffffffffffffffffffffffffffffffffff16815260200160008152602001600015158152602001600015158152509056fe4572726f722c20746865206d6573736167652076616c7565206973206c6f776572207468616e207468652070726963652061736b65642e4572726f722c2074686520706978656c2028782c792920616c7265616479206578697374732e4572726f722c20746865206f776e6572206973206e6f742074686520636f6e7472616374206f776e65722e4572726f722c207468652061646472657373206973206e6f7420746865206f776e65722773206f6e652e4572726f722c2074686520706978656c20796f752063686f6f7365206973206e6f7420617661696c61626c6520666f722073616c652e4572726f722c206e6f20636f72726573706f6e64696e6720706978656c2069642e4572726f722c20796f757220617265206e6f742074686520706978656c206f776e65722e4572726f722c206c696e6520616e6420636f6c756d6e20696e64657865732073686f756c64206265206265747765656e203120616e6420313030302028696e636c75646564292e4572726f722c206c696e6520616e6420636f6c756d6e20696e6465786573206f7574206f662072616e67652ea2646970667358221220448162b61f0fd60cda19520031ae6b9ba19486cc9032680be1dde8d1f271349964736f6c63430006000033",
  "source": "pragma solidity ^0.6.0;\r\n\r\n//@title One Million Dollar Project\r\n\r\ncontract PixelToken{\r\n\r\n    uint256 constant lignesPixelImage = 1000;\r\n    uint256 constant colonnesPixelImage = 1000;\r\n    uint256 totalToken;\r\n    uint public nbOfPixels = 0;\r\n    address payable contractOwner;\r\n    string public constant symbol = \"PXL\";\r\n    //we choose the price according to the area of the pixel\r\n    uint[] startingPrices = [10 wei,20 wei,50 wei];\r\n    bool userAnswer;\r\n\r\n    constructor() public {\r\n        contractOwner = msg.sender;\r\n        totalToken = lignesPixelImage * colonnesPixelImage;\r\n    }\r\n\r\n    struct Pixel\r\n    {\r\n        uint256 id;\r\n        uint256 line;\r\n        uint256 column;\r\n        address payable owner;\r\n        uint priceWEI;\r\n        bool isAvailableForSale;\r\n        bool hasBeenCreated;\r\n    }\r\n\r\n    mapping (uint256 => Pixel) public pixelList;   // pixelId => Pixel\r\n    mapping (uint => Pixel) public pixelForSale;\r\n    mapping (uint => mapping (uint => bool)) public pairNotAvailable;\r\n\r\n    /* GET THE INITIAL PRICE ACCORDING TO THE PIXEL COORD */\r\n    function getInitialPixelPrice(uint line, uint column) public view returns(uint){\r\n        require(line > 0 && column > 0 && line <= 1000 && column <= 1000,\r\n        \"Error, line and column indexes should be between 1 and 1000 (included).\");\r\n        uint price = 0;\r\n        if( (line <= 125) || (875 < line) || (column <= 125) || (875<column)){\r\n            price = startingPrices[0];\r\n        }\r\n        else if ( (125<line && line <= 875 && 125 < column && column < 375) || (125<line && line <= 875 && 625 < column && column <= 875)){\r\n            price = startingPrices[1];\r\n        }\r\n        else if( 125 < line && line <= 875 && 375 < column && column <= 625){\r\n            price = startingPrices[2];\r\n        }\r\n        return price;\r\n    }\r\n\r\n    /* CREATE TOKEN */\r\n    event newTokenCreated(uint id);\r\n    event pixelSetForSale(uint _id,uint _price, address _sellerAddress);\r\n\r\n    modifier onlyContractOwner(){\r\n        require(msg.sender == contractOwner, \"Error, you are not the owner of the contract.\");\r\n        _;\r\n    }\r\n    function createPixel(uint256 _line, uint256 _column, bool _onSale) public {\r\n        require(nbOfPixels < totalToken,\"Error, can't create more pixel.\");\r\n        require( 0 < _line && _line < 1000 && 0 < _column && _column < 1000,\r\n        \"Error, line and column indexes out of range.\");\r\n        require( pairNotAvailable[_line][_column] == false,\r\n        \"Error, the pixel (x,y) already exists.\");\r\n        nbOfPixels++;\r\n        Pixel memory p;\r\n        p.id = nbOfPixels;\r\n        p.line = _line;\r\n        p.column = _column;\r\n        p.owner = contractOwner;\r\n        p.priceWEI = getInitialPixelPrice(_line,_column);\r\n        p.hasBeenCreated = true;\r\n        if (_onSale == true) {  //add the pixel to the sale list\r\n            p.isAvailableForSale = true;\r\n            pixelForSale[p.id] = p;\r\n            emit pixelSetForSale (p.id,p.priceWEI,p.owner);\r\n        }\r\n        pixelList[p.id] = p;\r\n        pairNotAvailable[_line][_column] = true;\r\n        emit newTokenCreated(p.id);\r\n    }\r\n\r\n    /* GET THE COORD OF A PIXEL THANKS TO HIS ID */\r\n\r\n    function getPixelLine(uint _pixelId) public view returns (uint){\r\n        require(pixelList[_pixelId].id != 0,\"Error, no corresponding pixel id.\");\r\n        return pixelList[_pixelId].line;\r\n    }\r\n    function getPixelCol(uint _pixelId) public view returns (uint){\r\n        require(pixelList[_pixelId].id != 0,\"Error, no corresponding pixel id.\");\r\n        return pixelList[_pixelId].column;\r\n    }\r\n\r\n    /* BUY TOKEN in the ICO */\r\n    modifier isAvailableForSale(uint _id){\r\n        require( pixelList[_id].isAvailableForSale == true,\r\n        \"Error, the pixel you choose is not available for sale.\");\r\n        _;\r\n    }\r\n    modifier isRightPrice(uint _id){\r\n        require(pixelList[_id].priceWEI <= msg.value, \"Error, the message value is lower than the price asked.\");\r\n        _;\r\n    }\r\n    modifier isContractOwner(uint _pixelId){\r\n        require(pixelList[_pixelId].owner == contractOwner,\"Error, the owner is not the contract owner.\");\r\n        _;\r\n    }\r\n    event pixelBought(uint _pixelId, address _newOwner);\r\n\r\n    function buyPixel(uint _pixelId) public payable isAvailableForSale(_pixelId) isRightPrice(_pixelId) isContractOwner(_pixelId){\r\n        // contractOwner.transfer(pixelList[_pixelId].priceWEI);\r\n        pixelList[_pixelId].owner = msg.sender;\r\n        pixelList[_pixelId].isAvailableForSale = false;\r\n        delete pixelForSale[_pixelId]; //delete the pixel from the \"on sale\" mapping\r\n        emit pixelBought(_pixelId, msg.sender);\r\n    }\r\n\r\n\r\n    /* MODIFY PRICE -   The contract owner can modify the price only if he is the owner of the pixel\r\n                        (i.e.the pixel has not been sell yet).\r\n                        In the other side, a token owner (!= contractOwner) can't modify the price of his token\r\n                        without puting it in sale status.\r\n    */\r\n\r\n    modifier onlyPixelOwner(uint _id){\r\n        require(pixelList[_id].owner == msg.sender,\"Error, your are not the pixel owner.\");\r\n        _;\r\n    }\r\n    event tokenPriceModified(uint id, uint newPrice);\r\n\r\n    // function modifyPrice(uint256 _id, uint _newWeiPrice) public onlyContractOwner() onlyPixelOwner(_id) {\r\n    //     pixelList[_id].priceWEI = _newWeiPrice;\r\n    //     emit tokenPriceModified(_id,_newWeiPrice);\r\n    // }\r\n\r\n\r\n    /* SEARCH A TOKEN BY COORD */\r\n    function searchTokenByCoord(uint256 _line, uint256 _column) public view returns (int){\r\n        int256 idSearched = -1;\r\n        for(uint8 i = 0; i < totalToken; i++){\r\n            if(pixelList[i].line == _line && pixelList[i].column == _column){\r\n                idSearched = i;\r\n            }\r\n        }\r\n        require(idSearched != -1,\"Error, pixel not found.\");\r\n        return idSearched;\r\n    }\r\n\r\n\r\n    /* MODIFY TOKEN PRICE */\r\n    event pixelPriceModified(uint _idPixel, uint _newWeiPice);\r\n\r\n    function modifyPixelPrice(uint _idPixel, uint _newWeiPice) public onlyPixelOwner(_idPixel){\r\n        pixelList[_idPixel].priceWEI = _newWeiPice;\r\n        emit pixelPriceModified(_idPixel,_newWeiPice);\r\n    }\r\n\r\n    /* PUT A TOKEN FOR SALE*/\r\n    function setPixelForSale(uint _idPixel) public onlyPixelOwner(_idPixel){\r\n        pixelList[_idPixel].isAvailableForSale = true;\r\n        pixelForSale[_idPixel] = pixelList[_idPixel];\r\n        emit pixelSetForSale(_idPixel,pixelList[_idPixel].priceWEI,msg.sender);\r\n    }\r\n\r\n    /* BUY PIXEL FOR SALE */\r\n    event pixelBoughtOnSale(uint _id, uint _price, address _newOwner);\r\n\r\n    modifier isRightSalePrice(uint _id, uint _price){\r\n        require(pixelList[_id].priceWEI <= _price, \"Error, the message value is lower than the price asked.\");\r\n        _;\r\n    }\r\n    modifier isPixelOwner(uint _id, address payable _pixelOwner){\r\n        require(pixelList[_id].owner == _pixelOwner, \"Error, the address is not the owner's one.\");\r\n        _;\r\n    }\r\n    function buyPixelForSale(uint _pixelId, address payable _pixelOwner, uint _weiPrice) public\r\n        isAvailableForSale(_pixelId) isRightSalePrice(_pixelId,_weiPrice) isPixelOwner(_pixelId,_pixelOwner){\r\n\r\n        _pixelOwner.transfer(_weiPrice);\r\n        pixelList[_pixelId].owner = msg.sender;\r\n        pixelList[_pixelId].isAvailableForSale = false;\r\n\r\n        delete pixelForSale[_pixelId];\r\n        emit pixelBoughtOnSale(_pixelId,pixelList[_pixelId].priceWEI,msg.sender);\r\n    }\r\n\r\n\r\n    /* BUY RECTANGULAR AREAS -----> PB: OUT OF GAS\r\n    */\r\n    // struct Area{\r\n    //     uint id;\r\n    //     mapping (uint256 => Pixel) pixels;\r\n    //     uint topLeftCornerId;\r\n    //     uint topRightCornerId;\r\n    //     uint bottomLeftCornerId;\r\n    //     uint bottomRightCornerId;\r\n    //     uint totalAreaPrice;    //in WEI\r\n    //     uint salePrice;\r\n    //     bool isAvailableForSale;\r\n    //     address payable owner;\r\n    // }\r\n\r\n    // mapping (uint => Area) public areaList;\r\n    // uint public nbOfAreasDeclared = 0;\r\n\r\n    // event areaDeclared(uint _areaId, address _owner);\r\n\r\n    // modifier checkIfAreaOwner(uint a, uint b, uint c, uint d){\r\n    //     require( getPixelLine(a) == getPixelLine(b) && getPixelLine(c) == getPixelLine(d) &&\r\n    //             getPixelCol(a) == getPixelCol(c) && getPixelCol(b) == getPixelCol(d),\r\n    //             \"Error, abcd is not a rectangle.\");\r\n    //     uint x; uint y; uint X; uint Y;\r\n    //     x = getPixelLine(a);\r\n    //     y = getPixelCol(a);\r\n    //     X = getPixelLine(d);\r\n    //     Y = getPixelCol(d);\r\n    //     uint _pixelId;\r\n    //     for(uint i = x; i < X; i ++){\r\n    //         for (uint j = y; j < Y;j ++){\r\n    //             _pixelId = uint(searchTokenByCoord(i,j));\r\n    //             require(pixelList[_pixelId].hasBeenCreated == true,\"Error, at least one pixel has not been created.\");\r\n    //             require(pixelList[_pixelId].owner == msg.sender,\"Error, you are not the owner of at least one pixel of the area.\");\r\n    //         }\r\n    //     }\r\n    //     _;\r\n    // }\r\n\r\n    // function declareArea(uint _topLeftCorner, uint _topRightCorner, uint _bottomLeftCorner, uint _bottomRightCorner) public\r\n    //             checkIfAreaOwner(_topLeftCorner,_topRightCorner,_bottomLeftCorner,_bottomRightCorner){\r\n    //     Area memory newArea;\r\n    //     nbOfAreasDeclared ++;\r\n    //     newArea.id = nbOfAreasDeclared;\r\n    //     newArea.topLeftCornerId = _topLeftCorner;\r\n    //     newArea.topRightCornerId = _topRightCorner;\r\n    //     newArea.bottomLeftCornerId = _bottomLeftCorner;\r\n    //     newArea.bottomRightCornerId = _bottomRightCorner;\r\n    //     areaList[newArea.id] = newArea;\r\n    //     areaList[newArea.id].totalAreaPrice = getAreaPrice(newArea.id);\r\n    //     areaList[newArea.id].salePrice = areaList[newArea.id].totalAreaPrice;\r\n    //     setAreaPixelsList(newArea.id);\r\n    //     emit areaDeclared(newArea.id,msg.sender);\r\n    // }\r\n\r\n    // function getAreaPrice(uint _areaId) public view returns(uint){\r\n    //     uint x; uint y; uint X; uint Y;\r\n    //     x = getPixelLine(areaList[_areaId].topLeftCornerId);\r\n    //     y = getPixelCol(areaList[_areaId].topLeftCornerId);\r\n    //     X = getPixelLine(areaList[_areaId].bottomRightCornerId);\r\n    //     Y = getPixelCol(areaList[_areaId].bottomRightCornerId);\r\n    //     uint _totalPrice;\r\n    //     uint _pixelId;\r\n    //     for(uint i = x; i < X; i ++){\r\n    //         for (uint j = y; j < Y;j ++){\r\n    //             _pixelId = uint(searchTokenByCoord(i,j));\r\n    //             _totalPrice += pixelList[_pixelId].priceWEI;\r\n    //         }\r\n    //     }\r\n    //     return _totalPrice;\r\n    // }\r\n\r\n    // function setAreaPixelsList(uint _areaId) public {\r\n    //     uint x; uint y; uint X; uint Y;\r\n    //     x = getPixelLine(areaList[_areaId].topLeftCornerId);\r\n    //     y = getPixelCol(areaList[_areaId].topLeftCornerId);\r\n    //     X = getPixelLine(areaList[_areaId].bottomRightCornerId);\r\n    //     Y = getPixelCol(areaList[_areaId].bottomRightCornerId);\r\n    //     uint _pixelId;\r\n    //     for(uint i = x; i < X; i ++){\r\n    //         for (uint j = y; j < Y;j ++){\r\n    //             _pixelId = uint(searchTokenByCoord(i,j));\r\n    //             areaList[_areaId].pixels[_pixelId] = pixelList[_pixelId];\r\n    //         }\r\n    //     }\r\n    // }\r\n\r\n    // /* SELL AREA */\r\n    // modifier onlyAreaOwner(uint _id){\r\n    //     require(areaList[_id].owner == msg.sender,\"Error, you are not the area owner.\");\r\n    //     _;\r\n    // }\r\n    // event areaForSale(uint _areaId, uint _price);\r\n\r\n    // function setAreaForSale(uint _areaId) public onlyAreaOwner(_areaId){\r\n    //     areaList[_areaId].isAvailableForSale = true;\r\n    //     uint x; uint y; uint X; uint Y;\r\n    //     x = getPixelLine(areaList[_areaId].topLeftCornerId);\r\n    //     y = getPixelCol(areaList[_areaId].topLeftCornerId);\r\n    //     X = getPixelLine(areaList[_areaId].bottomRightCornerId);\r\n    //     Y = getPixelCol(areaList[_areaId].bottomRightCornerId);\r\n    //     uint _pixelId;\r\n    //     for(uint i = x; i < X; i ++){\r\n    //         for (uint j = y; j < Y;j ++){\r\n    //             _pixelId = uint(searchTokenByCoord(i,j));\r\n    //             pixelList[areaList[_areaId].pixels[_pixelId].id].isAvailableForSale = true;\r\n    //         }\r\n    //     }\r\n    //     emit areaForSale(_areaId,areaList[_areaId].salePrice);\r\n    // }\r\n\r\n    // // event areaSalePriceModified(uint _areaId, uint _price);\r\n\r\n    // // function changeAreaPrice(uint _areaId, uint _newPrice) public onlyAreaOwner(_areaId){\r\n    // //     areaList[_areaId].salePrice = _newPrice;\r\n    // //     emit areaSalePriceModified(_areaId,_newPrice);\r\n    // // }\r\n\r\n    // event areaBougth(uint _areaId, uint _price, address _newOwner);\r\n\r\n    // function buyArea(uint _areaId) public payable{\r\n    //     require(msg.value >= areaList[_areaId].salePrice,\"Error, not enough money sent.\");\r\n    //     require(areaList[_areaId].isAvailableForSale = true,\"Error, area not available for sale.\");\r\n    //     areaList[_areaId].owner.transfer(areaList[_areaId].salePrice);\r\n    //     areaList[_areaId].owner = msg.sender;\r\n    //     areaList[_areaId].isAvailableForSale = false;\r\n    //     uint x; uint y; uint X; uint Y;\r\n    //     x = getPixelLine(areaList[_areaId].topLeftCornerId);\r\n    //     y = getPixelCol(areaList[_areaId].topLeftCornerId);\r\n    //     X = getPixelLine(areaList[_areaId].bottomRightCornerId);\r\n    //     Y = getPixelCol(areaList[_areaId].bottomRightCornerId);\r\n    //     uint _pixelId;\r\n    //     for(uint i = x; i < X; i ++){\r\n    //         for (uint j = y; j < Y;j ++){\r\n    //             _pixelId = uint(searchTokenByCoord(i,j));\r\n    //             pixelList[areaList[_areaId].pixels[_pixelId].id].owner = msg.sender;\r\n    //         }\r\n    //     }\r\n    //     emit areaBougth(_areaId,areaList[_areaId].salePrice,areaList[_areaId].owner);\r\n    // }\r\n\r\n    // event areaUndeclared(uint _id);\r\n\r\n    // function undeclaredArea(uint _areaId) public onlyAreaOwner(_areaId){\r\n    //     delete areaList[_areaId];\r\n    //     emit areaUndeclared(_areaId);\r\n    // }\r\n\r\n}",
  "sourcePath": "/mnt/c/Users/marti/Desktop/ESILV/PI/OneMillionDollarProject/smart-contract/contracts/PixelToken.sol",
  "compiler": {
    "name": "solc",
    "version": "0.6.0+commit.26b70077.Emscripten.clang"
  },
  "schemaVersion": "3.0.23",
  "updatedAt": "2020-03-27T15:27:16.373Z",
  "networkType": "ethereum",
  "devdoc": {
    "methods": {}
  },
  "userdoc": {
    "methods": {}
  }
}