{
  "contractName": "PixelToken",
  "abi": [
    {
      "inputs": [],
      "stateMutability": "nonpayable",
      "type": "constructor"
    },
    {
      "anonymous": false,
      "inputs": [
        {
          "indexed": false,
          "internalType": "uint256",
          "name": "_areaId",
          "type": "uint256"
        },
        {
          "indexed": false,
          "internalType": "uint256",
          "name": "_price",
          "type": "uint256"
        },
        {
          "indexed": false,
          "internalType": "address",
          "name": "_newOwner",
          "type": "address"
        }
      ],
      "name": "areaBougth",
      "type": "event"
    },
    {
      "anonymous": false,
      "inputs": [
        {
          "indexed": false,
          "internalType": "uint256",
          "name": "_areaId",
          "type": "uint256"
        },
        {
          "indexed": false,
          "internalType": "address",
          "name": "_owner",
          "type": "address"
        }
      ],
      "name": "areaDeclared",
      "type": "event"
    },
    {
      "anonymous": false,
      "inputs": [
        {
          "indexed": false,
          "internalType": "uint256",
          "name": "_areaId",
          "type": "uint256"
        },
        {
          "indexed": false,
          "internalType": "uint256",
          "name": "_price",
          "type": "uint256"
        }
      ],
      "name": "areaForSale",
      "type": "event"
    },
    {
      "anonymous": false,
      "inputs": [
        {
          "indexed": false,
          "internalType": "uint256",
          "name": "_id",
          "type": "uint256"
        }
      ],
      "name": "areaUndeclared",
      "type": "event"
    },
    {
      "anonymous": false,
      "inputs": [
        {
          "indexed": false,
          "internalType": "uint256",
          "name": "id",
          "type": "uint256"
        }
      ],
      "name": "newTokenCreated",
      "type": "event"
    },
    {
      "anonymous": false,
      "inputs": [
        {
          "indexed": false,
          "internalType": "uint256",
          "name": "_pixelId",
          "type": "uint256"
        },
        {
          "indexed": false,
          "internalType": "address",
          "name": "_newOwner",
          "type": "address"
        }
      ],
      "name": "pixelBought",
      "type": "event"
    },
    {
      "anonymous": false,
      "inputs": [
        {
          "indexed": false,
          "internalType": "uint256",
          "name": "_id",
          "type": "uint256"
        },
        {
          "indexed": false,
          "internalType": "uint256",
          "name": "_price",
          "type": "uint256"
        },
        {
          "indexed": false,
          "internalType": "address",
          "name": "_newOwner",
          "type": "address"
        }
      ],
      "name": "pixelBoughtOnSale",
      "type": "event"
    },
    {
      "anonymous": false,
      "inputs": [
        {
          "indexed": false,
          "internalType": "uint256",
          "name": "_idPixel",
          "type": "uint256"
        },
        {
          "indexed": false,
          "internalType": "uint256",
          "name": "_newWeiPice",
          "type": "uint256"
        }
      ],
      "name": "pixelPriceModified",
      "type": "event"
    },
    {
      "anonymous": false,
      "inputs": [
        {
          "indexed": false,
          "internalType": "uint256",
          "name": "_id",
          "type": "uint256"
        },
        {
          "indexed": false,
          "internalType": "uint256",
          "name": "_price",
          "type": "uint256"
        },
        {
          "indexed": false,
          "internalType": "address",
          "name": "_sellerAddress",
          "type": "address"
        }
      ],
      "name": "pixelSetForSale",
      "type": "event"
    },
    {
      "anonymous": false,
      "inputs": [
        {
          "indexed": false,
          "internalType": "uint256",
          "name": "id",
          "type": "uint256"
        },
        {
          "indexed": false,
          "internalType": "uint256",
          "name": "newPrice",
          "type": "uint256"
        }
      ],
      "name": "tokenPriceModified",
      "type": "event"
    },
    {
      "inputs": [
        {
          "internalType": "uint256",
          "name": "",
          "type": "uint256"
        }
      ],
      "name": "columnsNotAvailable",
      "outputs": [
        {
          "internalType": "bool",
          "name": "",
          "type": "bool"
        }
      ],
      "stateMutability": "view",
      "type": "function",
      "constant": true
    },
    {
      "inputs": [
        {
          "internalType": "uint256",
          "name": "",
          "type": "uint256"
        }
      ],
      "name": "linesNotAvailable",
      "outputs": [
        {
          "internalType": "bool",
          "name": "",
          "type": "bool"
        }
      ],
      "stateMutability": "view",
      "type": "function",
      "constant": true
    },
    {
      "inputs": [],
      "name": "nbOfTokens",
      "outputs": [
        {
          "internalType": "uint256",
          "name": "",
          "type": "uint256"
        }
      ],
      "stateMutability": "view",
      "type": "function",
      "constant": true
    },
    {
      "inputs": [
        {
          "internalType": "uint256",
          "name": "",
          "type": "uint256"
        }
      ],
      "name": "pixelForSale",
      "outputs": [
        {
          "internalType": "uint256",
          "name": "id",
          "type": "uint256"
        },
        {
          "internalType": "uint256",
          "name": "line",
          "type": "uint256"
        },
        {
          "internalType": "uint256",
          "name": "column",
          "type": "uint256"
        },
        {
          "internalType": "address payable",
          "name": "owner",
          "type": "address"
        },
        {
          "internalType": "uint256",
          "name": "priceWEI",
          "type": "uint256"
        },
        {
          "internalType": "bool",
          "name": "isAvailableForSale",
          "type": "bool"
        },
        {
          "internalType": "bool",
          "name": "hasBeenCreated",
          "type": "bool"
        }
      ],
      "stateMutability": "view",
      "type": "function",
      "constant": true
    },
    {
      "inputs": [
        {
          "internalType": "uint256",
          "name": "",
          "type": "uint256"
        }
      ],
      "name": "pixelList",
      "outputs": [
        {
          "internalType": "uint256",
          "name": "id",
          "type": "uint256"
        },
        {
          "internalType": "uint256",
          "name": "line",
          "type": "uint256"
        },
        {
          "internalType": "uint256",
          "name": "column",
          "type": "uint256"
        },
        {
          "internalType": "address payable",
          "name": "owner",
          "type": "address"
        },
        {
          "internalType": "uint256",
          "name": "priceWEI",
          "type": "uint256"
        },
        {
          "internalType": "bool",
          "name": "isAvailableForSale",
          "type": "bool"
        },
        {
          "internalType": "bool",
          "name": "hasBeenCreated",
          "type": "bool"
        }
      ],
      "stateMutability": "view",
      "type": "function",
      "constant": true
    },
    {
      "inputs": [
        {
          "internalType": "uint256",
          "name": "line",
          "type": "uint256"
        },
        {
          "internalType": "uint256",
          "name": "column",
          "type": "uint256"
        }
      ],
      "name": "getInitialPixelPrice",
      "outputs": [
        {
          "internalType": "uint256",
          "name": "",
          "type": "uint256"
        }
      ],
      "stateMutability": "view",
      "type": "function",
      "constant": true
    },
    {
      "inputs": [
        {
          "internalType": "uint256",
          "name": "_line",
          "type": "uint256"
        },
        {
          "internalType": "uint256",
          "name": "_column",
          "type": "uint256"
        },
        {
          "internalType": "bool",
          "name": "_onSale",
          "type": "bool"
        }
      ],
      "name": "createPixel",
      "outputs": [],
      "stateMutability": "nonpayable",
      "type": "function"
    },
    {
      "inputs": [
        {
          "internalType": "uint256",
          "name": "_pixelId",
          "type": "uint256"
        }
      ],
      "name": "getPixelLine",
      "outputs": [
        {
          "internalType": "uint256",
          "name": "",
          "type": "uint256"
        }
      ],
      "stateMutability": "view",
      "type": "function",
      "constant": true
    },
    {
      "inputs": [
        {
          "internalType": "uint256",
          "name": "_pixelId",
          "type": "uint256"
        }
      ],
      "name": "getPixelCol",
      "outputs": [
        {
          "internalType": "uint256",
          "name": "",
          "type": "uint256"
        }
      ],
      "stateMutability": "view",
      "type": "function",
      "constant": true
    },
    {
      "inputs": [
        {
          "internalType": "uint256",
          "name": "_pixelId",
          "type": "uint256"
        }
      ],
      "name": "buyPixel",
      "outputs": [],
      "stateMutability": "payable",
      "type": "function",
      "payable": true
    },
    {
      "inputs": [
        {
          "internalType": "uint256",
          "name": "_line",
          "type": "uint256"
        },
        {
          "internalType": "uint256",
          "name": "_column",
          "type": "uint256"
        }
      ],
      "name": "searchTokenByCoord",
      "outputs": [
        {
          "internalType": "int256",
          "name": "",
          "type": "int256"
        }
      ],
      "stateMutability": "view",
      "type": "function",
      "constant": true
    },
    {
      "inputs": [
        {
          "internalType": "uint256",
          "name": "_idPixel",
          "type": "uint256"
        },
        {
          "internalType": "uint256",
          "name": "_newWeiPice",
          "type": "uint256"
        }
      ],
      "name": "modifyPixelPrice",
      "outputs": [],
      "stateMutability": "nonpayable",
      "type": "function"
    },
    {
      "inputs": [
        {
          "internalType": "uint256",
          "name": "_idPixel",
          "type": "uint256"
        }
      ],
      "name": "setPixelForSale",
      "outputs": [],
      "stateMutability": "nonpayable",
      "type": "function"
    },
    {
      "inputs": [
        {
          "internalType": "uint256",
          "name": "_pixelId",
          "type": "uint256"
        },
        {
          "internalType": "address payable",
          "name": "_pixelOwner",
          "type": "address"
        },
        {
          "internalType": "uint256",
          "name": "_weiPrice",
          "type": "uint256"
        }
      ],
      "name": "buyPixelForSale",
      "outputs": [],
      "stateMutability": "nonpayable",
      "type": "function"
    },
    {
      "inputs": [
        {
          "internalType": "uint256",
          "name": "_topLeftCorner",
          "type": "uint256"
        },
        {
          "internalType": "uint256",
          "name": "_topRightCorner",
          "type": "uint256"
        },
        {
          "internalType": "uint256",
          "name": "_bottomLeftCorner",
          "type": "uint256"
        },
        {
          "internalType": "uint256",
          "name": "_bottomRightCorner",
          "type": "uint256"
        }
      ],
      "name": "declareArea",
      "outputs": [],
      "stateMutability": "nonpayable",
      "type": "function"
    },
    {
      "inputs": [
        {
          "internalType": "uint256",
          "name": "_areaId",
          "type": "uint256"
        }
      ],
      "name": "getAreaPrice",
      "outputs": [
        {
          "internalType": "uint256",
          "name": "",
          "type": "uint256"
        }
      ],
      "stateMutability": "view",
      "type": "function",
      "constant": true
    },
    {
      "inputs": [
        {
          "internalType": "uint256",
          "name": "_areaId",
          "type": "uint256"
        }
      ],
      "name": "setAreaPixelsList",
      "outputs": [],
      "stateMutability": "nonpayable",
      "type": "function"
    },
    {
      "inputs": [
        {
          "internalType": "uint256",
          "name": "_areaId",
          "type": "uint256"
        }
      ],
      "name": "setAreaForSale",
      "outputs": [],
      "stateMutability": "nonpayable",
      "type": "function"
    },
    {
      "inputs": [
        {
          "internalType": "uint256",
          "name": "_areaId",
          "type": "uint256"
        }
      ],
      "name": "buyArea",
      "outputs": [],
      "stateMutability": "payable",
      "type": "function",
      "payable": true
    },
    {
      "inputs": [
        {
          "internalType": "uint256",
          "name": "_areaId",
          "type": "uint256"
        }
      ],
      "name": "undeclaredArea",
      "outputs": [],
      "stateMutability": "nonpayable",
      "type": "function"
    }
  ],
  "bytecode": "0x608060405260006001556040518060600160405280600a60ff168152602001601460ff168152602001603260ff16815250600390600362000042929190620000a8565b506000600a553480156200005557600080fd5b5033600260006101000a81548173ffffffffffffffffffffffffffffffffffffffff021916908373ffffffffffffffffffffffffffffffffffffffff1602179055506103e8800260008190555062000127565b828054828255906000526020600020908101928215620000ec579160200282015b82811115620000eb578251829060ff16905591602001919060010190620000c9565b5b509050620000fb9190620000ff565b5090565b6200012491905b808211156200012057600081600090555060010162000106565b5090565b90565b61303380620001376000396000f3fe60806040526004361061011f5760003560e01c80636b5d8be5116100a0578063e75fa06e11610064578063e75fa06e1461066f578063eda932831461069d578063ef0f0e99146106d8578063f208786914610706578063fb14052f1461075f5761011f565b80636b5d8be514610504578063847c9537146105575780638a890d871461059257806393fd84c4146105e1578063b07cda96146106345761011f565b8063452a7a8d116100e7578063452a7a8d1461037557806351dddbf3146103c65780635e23aa251461040b5780635efa0738146104705780636813e017146104ab5761011f565b80631a55745c1461012457806325471143146101735780633a631ff7146102205780633c2e36b2146102cd5780633db6d1c91461031c575b600080fd5b34801561013057600080fd5b5061015d6004803603602081101561014757600080fd5b810190808035906020019092919050505061078a565b6040518082815260200191505060405180910390f35b34801561017f57600080fd5b506101ac6004803603602081101561019657600080fd5b8101908080359060200190929190505050610819565b604051808881526020018781526020018681526020018573ffffffffffffffffffffffffffffffffffffffff1673ffffffffffffffffffffffffffffffffffffffff168152602001848152602001831515151581526020018215151515815260200197505050505050505060405180910390f35b34801561022c57600080fd5b506102596004803603602081101561024357600080fd5b8101908080359060200190929190505050610895565b604051808881526020018781526020018681526020018573ffffffffffffffffffffffffffffffffffffffff1673ffffffffffffffffffffffffffffffffffffffff168152602001848152602001831515151581526020018215151515815260200197505050505050505060405180910390f35b3480156102d957600080fd5b50610306600480360360208110156102f057600080fd5b8101908080359060200190929190505050610911565b6040518082815260200191505060405180910390f35b34801561032857600080fd5b5061035f6004803603604081101561033f57600080fd5b8101908080359060200190929190803590602001909291905050506109a0565b6040518082815260200191505060405180910390f35b34801561038157600080fd5b506103c46004803603606081101561039857600080fd5b810190808035906020019092919080359060200190929190803515159060200190929190505050610ad3565b005b3480156103d257600080fd5b50610409600480360360408110156103e957600080fd5b8101908080359060200190929190803590602001909291905050506110be565b005b34801561041757600080fd5b5061046e6004803603606081101561042e57600080fd5b8101908080359060200190929190803573ffffffffffffffffffffffffffffffffffffffff169060200190929190803590602001909291905050506111d8565b005b34801561047c57600080fd5b506104a96004803603602081101561049357600080fd5b8101908080359060200190929190505050611569565b005b3480156104b757600080fd5b50610502600480360360808110156104ce57600080fd5b8101908080359060200190929190803590602001909291908035906020019092919080359060200190929190505050611766565b005b34801561051057600080fd5b5061053d6004803603602081101561052757600080fd5b8101908080359060200190929190505050611bf8565b604051808215151515815260200191505060405180910390f35b34801561056357600080fd5b506105906004803603602081101561057a57600080fd5b8101908080359060200190929190505050611c18565b005b34801561059e57600080fd5b506105cb600480360360208110156105b557600080fd5b8101908080359060200190929190505050611ea1565b6040518082815260200191505060405180910390f35b3480156105ed57600080fd5b5061061a6004803603602081101561060457600080fd5b8101908080359060200190929190505050611f9d565b604051808215151515815260200191505060405180910390f35b34801561064057600080fd5b5061066d6004803603602081101561065757600080fd5b8101908080359060200190929190505050611fbd565b005b61069b6004803603602081101561068557600080fd5b810190808035906020019092919050505061213c565b005b3480156106a957600080fd5b506106d6600480360360208110156106c057600080fd5b8101908080359060200190929190505050612484565b005b610704600480360360208110156106ee57600080fd5b81019080803590602001909291905050506126f4565b005b34801561071257600080fd5b506107496004803603604081101561072957600080fd5b810190808035906020019092919080359060200190929190505050612b2f565b6040518082815260200191505060405180910390f35b34801561076b57600080fd5b50610774612ce2565b6040518082815260200191505060405180910390f35b600080600560008481526020019081526020016000206000015414156107fb576040517f08c379a0000000000000000000000000000000000000000000000000000000008152600401808060200182810382526021815260200180612f076021913960400191505060405180910390fd5b60056000838152602001908152602001600020600101549050919050565b60066020528060005260406000206000915090508060000154908060010154908060020154908060030160009054906101000a900473ffffffffffffffffffffffffffffffffffffffff16908060040154908060050160009054906101000a900460ff16908060050160019054906101000a900460ff16905087565b60056020528060005260406000206000915090508060000154908060010154908060020154908060030160009054906101000a900473ffffffffffffffffffffffffffffffffffffffff16908060040154908060050160009054906101000a900460ff16908060050160019054906101000a900460ff16905087565b60008060056000848152602001908152602001600020600001541415610982576040517f08c379a0000000000000000000000000000000000000000000000000000000008152600401808060200182810382526021815260200180612f076021913960400191505060405180910390fd5b60056000838152602001908152602001600020600201549050919050565b6000807fffffffffffffffffffffffffffffffffffffffffffffffffffffffffffffffff905060008090505b6000548160ff161015610a325784600560008360ff16815260200190815260200160002060010154148015610a19575083600560008360ff16815260200190815260200160002060020154145b15610a25578060ff1691505b80806001019150506109cc565b507fffffffffffffffffffffffffffffffffffffffffffffffffffffffffffffffff811415610ac9576040517f08c379a00000000000000000000000000000000000000000000000000000000081526004018080602001828103825260178152602001807f4572726f722c20706978656c206e6f7420666f756e642e00000000000000000081525060200191505060405180910390fd5b8091505092915050565b600260009054906101000a900473ffffffffffffffffffffffffffffffffffffffff1673ffffffffffffffffffffffffffffffffffffffff163373ffffffffffffffffffffffffffffffffffffffff1614610b79576040517f08c379a000000000000000000000000000000000000000000000000000000000815260040180806020018281038252602d815260200180612da4602d913960400191505060405180910390fd5b60005460015410610bf2576040517f08c379a000000000000000000000000000000000000000000000000000000000815260040180806020018281038252601f8152602001807f4572726f722c2063616e277420637265617465206d6f726520706978656c2e0081525060200191505060405180910390fd5b826000108015610c0357506103e883105b8015610c0f5750816000105b8015610c1c57506103e882105b610c71576040517f08c379a000000000000000000000000000000000000000000000000000000000815260040180806020018281038252602c815260200180612fd2602c913960400191505060405180910390fd5b600015156007600085815260200190815260200160002060009054906101000a900460ff161515148015610cc95750600015156008600084815260200190815260200160002060009054906101000a900460ff161515145b610d3b576040517f08c379a00000000000000000000000000000000000000000000000000000000081526004018080602001828103825260208152602001807f4572726f722c2074686520706978656c20616c7265616479206578697374732e81525060200191505060405180910390fd5b600160008154809291906001019190505550610d55612ce8565b6001548160000181815250508381602001818152505082816040018181525050600260009054906101000a900473ffffffffffffffffffffffffffffffffffffffff16816060019073ffffffffffffffffffffffffffffffffffffffff16908173ffffffffffffffffffffffffffffffffffffffff1681525050610dd98484612b2f565b81608001818152505060018160c0019015159081151581525050600115158215151415610f5b5760018160a001901515908115158152505080600660008360000151815260200190815260200160002060008201518160000155602082015181600101556040820151816002015560608201518160030160006101000a81548173ffffffffffffffffffffffffffffffffffffffff021916908373ffffffffffffffffffffffffffffffffffffffff1602179055506080820151816004015560a08201518160050160006101000a81548160ff02191690831515021790555060c08201518160050160016101000a81548160ff0219169083151502179055509050507fe5e1a9ef71a30d6b839c4cc3c4543c08a8cd006b5b1a5e189fedb4d981044b43816000015182608001518360600151604051808481526020018381526020018273ffffffffffffffffffffffffffffffffffffffff1673ffffffffffffffffffffffffffffffffffffffff168152602001935050505060405180910390a15b80600560008360000151815260200190815260200160002060008201518160000155602082015181600101556040820151816002015560608201518160030160006101000a81548173ffffffffffffffffffffffffffffffffffffffff021916908373ffffffffffffffffffffffffffffffffffffffff1602179055506080820151816004015560a08201518160050160006101000a81548160ff02191690831515021790555060c08201518160050160016101000a81548160ff02191690831515021790555090505060016007600086815260200190815260200160002060006101000a81548160ff02191690831515021790555060016008600085815260200190815260200160002060006101000a81548160ff0219169083151502179055507fcdaa82983bd4f11a293abc7990c1dab2053837543a3e15e484d8b08298c1579081600001516040518082815260200191505060405180910390a150505050565b813373ffffffffffffffffffffffffffffffffffffffff166005600083815260200190815260200160002060030160009054906101000a900473ffffffffffffffffffffffffffffffffffffffff1673ffffffffffffffffffffffffffffffffffffffff1614611179576040517f08c379a0000000000000000000000000000000000000000000000000000000008152600401808060200182810382526024815260200180612f286024913960400191505060405180910390fd5b8160056000858152602001908152602001600020600401819055507fa09e2f508e359513bc61fe0ce1336110b13100fc7054ec0bd521b314fe6cc7a28383604051808381526020018281526020019250505060405180910390a1505050565b82600115156005600083815260200190815260200160002060050160009054906101000a900460ff16151514611259576040517f08c379a0000000000000000000000000000000000000000000000000000000008152600401808060200182810382526036815260200180612ed16036913960400191505060405180910390fd5b838280600560008481526020019081526020016000206004015411156112ca576040517f08c379a0000000000000000000000000000000000000000000000000000000008152600401808060200182810382526037815260200180612e166037913960400191505060405180910390fd5b85858073ffffffffffffffffffffffffffffffffffffffff166005600084815260200190815260200160002060030160009054906101000a900473ffffffffffffffffffffffffffffffffffffffff1673ffffffffffffffffffffffffffffffffffffffff1614611386576040517f08c379a000000000000000000000000000000000000000000000000000000000815260040180806020018281038252602a815260200180612ea7602a913960400191505060405180910390fd5b8673ffffffffffffffffffffffffffffffffffffffff166108fc879081150290604051600060405180830381858888f193505050501580156113cc573d6000803e3d6000fd5b5033600560008a815260200190815260200160002060030160006101000a81548173ffffffffffffffffffffffffffffffffffffffff021916908373ffffffffffffffffffffffffffffffffffffffff1602179055506000600560008a815260200190815260200160002060050160006101000a81548160ff02191690831515021790555060066000898152602001908152602001600020600080820160009055600182016000905560028201600090556003820160006101000a81549073ffffffffffffffffffffffffffffffffffffffff021916905560048201600090556005820160006101000a81549060ff02191690556005820160016101000a81549060ff021916905550507f6b0c0944bd97ee49c5b66d036a1381a855da2604da8044d1d5318a0193150bb188600560008b81526020019081526020016000206004015433604051808481526020018381526020018273ffffffffffffffffffffffffffffffffffffffff1673ffffffffffffffffffffffffffffffffffffffff168152602001935050505060405180910390a15050505050505050565b60008060008061158e600960008781526020019081526020016000206002015461078a565b93506115af6009600087815260200190815260200160002060020154610911565b92506115d0600960008781526020019081526020016000206005015461078a565b91506115f16009600087815260200190815260200160002060050154610911565b90506000808590505b8381101561175d5760008590505b8381101561174f5761161a82826109a0565b925060056000848152602001908152602001600020600960008a815260200190815260200160002060010160008581526020019081526020016000206000820154816000015560018201548160010155600282015481600201556003820160009054906101000a900473ffffffffffffffffffffffffffffffffffffffff168160030160006101000a81548173ffffffffffffffffffffffffffffffffffffffff021916908373ffffffffffffffffffffffffffffffffffffffff160217905550600482015481600401556005820160009054906101000a900460ff168160050160006101000a81548160ff0219169083151502179055506005820160019054906101000a900460ff168160050160016101000a81548160ff0219169083151502179055509050508080600101915050611608565b5080806001019150506115fa565b50505050505050565b838383836117738361078a565b61177c8561078a565b148015611798575061178d8161078a565b6117968361078a565b145b80156117b357506117a882610911565b6117b185610911565b145b80156117ce57506117c381610911565b6117cc84610911565b145b611840576040517f08c379a000000000000000000000000000000000000000000000000000000000815260040180806020018281038252601f8152602001807f4572726f722c2061626364206973206e6f7420612072656374616e676c652e0081525060200191505060405180910390fd5b60008060008061184f8861078a565b935061185a88610911565b92506118658561078a565b915061187085610911565b90506000808590505b838110156119f05760008590505b838110156119e25761189982826109a0565b9250600115156005600085815260200190815260200160002060050160019054906101000a900460ff1615151461191b576040517f08c379a000000000000000000000000000000000000000000000000000000000815260040180806020018281038252602f815260200180612e4d602f913960400191505060405180910390fd5b3373ffffffffffffffffffffffffffffffffffffffff166005600085815260200190815260200160002060030160009054906101000a900473ffffffffffffffffffffffffffffffffffffffff1673ffffffffffffffffffffffffffffffffffffffff16146119d5576040517f08c379a000000000000000000000000000000000000000000000000000000000815260040180806020018281038252603f815260200180612f93603f913960400191505060405180910390fd5b8080600101915050611887565b508080600101915050611879565b506119f9612d3f565b600a60008154809291906001019190505550600a548160000181815250508d8160200181815250508c8160400181815250508b8160600181815250508a816080018181525050806009600083600001518152602001908152602001600020600082015181600001556020820151816002015560408201518160030155606082015181600401556080820151816005015560a0820151816006015560c0820151816007015560e08201518160080160006101000a81548160ff0219169083151502179055506101008201518160080160016101000a81548173ffffffffffffffffffffffffffffffffffffffff021916908373ffffffffffffffffffffffffffffffffffffffff160217905550905050611b158160000151611ea1565b600960008360000151815260200190815260200160002060060181905550600960008260000151815260200190815260200160002060060154600960008360000151815260200190815260200160002060070181905550611b798160000151611569565b7f11974047e475dd5cd1fba891f093aa51bf5f5934e033ce1b3758bbcf5a2a5e00816000015133604051808381526020018273ffffffffffffffffffffffffffffffffffffffff1673ffffffffffffffffffffffffffffffffffffffff1681526020019250505060405180910390a15050505050505050505050505050565b60086020528060005260406000206000915054906101000a900460ff1681565b803373ffffffffffffffffffffffffffffffffffffffff166005600083815260200190815260200160002060030160009054906101000a900473ffffffffffffffffffffffffffffffffffffffff1673ffffffffffffffffffffffffffffffffffffffff1614611cd3576040517f08c379a0000000000000000000000000000000000000000000000000000000008152600401808060200182810382526024815260200180612f286024913960400191505060405180910390fd5b60016005600084815260200190815260200160002060050160006101000a81548160ff02191690831515021790555060056000838152602001908152602001600020600660008481526020019081526020016000206000820154816000015560018201548160010155600282015481600201556003820160009054906101000a900473ffffffffffffffffffffffffffffffffffffffff168160030160006101000a81548173ffffffffffffffffffffffffffffffffffffffff021916908373ffffffffffffffffffffffffffffffffffffffff160217905550600482015481600401556005820160009054906101000a900460ff168160050160006101000a81548160ff0219169083151502179055506005820160019054906101000a900460ff168160050160016101000a81548160ff0219169083151502179055509050507fe5e1a9ef71a30d6b839c4cc3c4543c08a8cd006b5b1a5e189fedb4d981044b4382600560008581526020019081526020016000206004015433604051808481526020018381526020018273ffffffffffffffffffffffffffffffffffffffff1673ffffffffffffffffffffffffffffffffffffffff168152602001935050505060405180910390a15050565b6000806000806000611ec8600960008881526020019081526020016000206002015461078a565b9350611ee96009600088815260200190815260200160002060020154610911565b9250611f0a600960008881526020019081526020016000206005015461078a565b9150611f2b6009600088815260200190815260200160002060050154610911565b905060008060008690505b84811015611f8e5760008690505b84811015611f8057611f5682826109a0565b92506005600084815260200190815260200160002060040154840193508080600101915050611f44565b508080600101915050611f36565b50819650505050505050919050565b60076020528060005260406000206000915054906101000a900460ff1681565b803373ffffffffffffffffffffffffffffffffffffffff166009600083815260200190815260200160002060080160019054906101000a900473ffffffffffffffffffffffffffffffffffffffff1673ffffffffffffffffffffffffffffffffffffffff1614612078576040517f08c379a0000000000000000000000000000000000000000000000000000000008152600401808060200182810382526022815260200180612dd16022913960400191505060405180910390fd5b600960008381526020019081526020016000206000808201600090556002820160009055600382016000905560048201600090556005820160009055600682016000905560078201600090556008820160006101000a81549060ff02191690556008820160016101000a81549073ffffffffffffffffffffffffffffffffffffffff021916905550507fa2e2731eb0e1bf2b850f82d844a36722db92e916f6532b53b36f63f10c976cfc826040518082815260200191505060405180910390a15050565b80600115156005600083815260200190815260200160002060050160009054906101000a900460ff161515146121bd576040517f08c379a0000000000000000000000000000000000000000000000000000000008152600401808060200182810382526036815260200180612ed16036913960400191505060405180910390fd5b81346005600083815260200190815260200160002060040154111561222d576040517f08c379a0000000000000000000000000000000000000000000000000000000008152600401808060200182810382526037815260200180612e166037913960400191505060405180910390fd5b82600260009054906101000a900473ffffffffffffffffffffffffffffffffffffffff1673ffffffffffffffffffffffffffffffffffffffff166005600083815260200190815260200160002060030160009054906101000a900473ffffffffffffffffffffffffffffffffffffffff1673ffffffffffffffffffffffffffffffffffffffff161461230a576040517f08c379a000000000000000000000000000000000000000000000000000000000815260040180806020018281038252602b815260200180612e7c602b913960400191505060405180910390fd5b336005600086815260200190815260200160002060030160006101000a81548173ffffffffffffffffffffffffffffffffffffffff021916908373ffffffffffffffffffffffffffffffffffffffff16021790555060006005600086815260200190815260200160002060050160006101000a81548160ff02191690831515021790555060066000858152602001908152602001600020600080820160009055600182016000905560028201600090556003820160006101000a81549073ffffffffffffffffffffffffffffffffffffffff021916905560048201600090556005820160006101000a81549060ff02191690556005820160016101000a81549060ff021916905550507fd50965627b0e9af76342bd7cf8acbaa6ec0f3467cb3b6d976fe4f7619b25d8a58433604051808381526020018273ffffffffffffffffffffffffffffffffffffffff1673ffffffffffffffffffffffffffffffffffffffff1681526020019250505060405180910390a150505050565b803373ffffffffffffffffffffffffffffffffffffffff166009600083815260200190815260200160002060080160019054906101000a900473ffffffffffffffffffffffffffffffffffffffff1673ffffffffffffffffffffffffffffffffffffffff161461253f576040517f08c379a0000000000000000000000000000000000000000000000000000000008152600401808060200182810382526022815260200180612dd16022913960400191505060405180910390fd5b60016009600084815260200190815260200160002060080160006101000a81548160ff021916908315150217905550600080600080612593600960008881526020019081526020016000206002015461078a565b93506125b46009600088815260200190815260200160002060020154610911565b92506125d5600960008881526020019081526020016000206005015461078a565b91506125f66009600088815260200190815260200160002060050154610911565b90506000808590505b838110156126955760008590505b838110156126875761261f82826109a0565b9250600160056000600960008d8152602001908152602001600020600101600087815260200190815260200160002060000154815260200190815260200160002060050160006101000a81548160ff021916908315150217905550808060010191505061260d565b5080806001019150506125ff565b507fc9b00b8d110ab10d1eb1b1673ba2ef7f1a37aaac0ee1cae23b17adf3a784fbb787600960008a815260200190815260200160002060070154604051808381526020018281526020019250505060405180910390a150505050505050565b6009600082815260200190815260200160002060070154341015612780576040517f08c379a000000000000000000000000000000000000000000000000000000000815260040180806020018281038252601d8152602001807f4572726f722c206e6f7420656e6f756768206d6f6e65792073656e742e00000081525060200191505060405180910390fd5b60016009600083815260200190815260200160002060080160006101000a81548160ff0219169083151502179055612803576040517f08c379a0000000000000000000000000000000000000000000000000000000008152600401808060200182810382526023815260200180612df36023913960400191505060405180910390fd5b6009600082815260200190815260200160002060080160019054906101000a900473ffffffffffffffffffffffffffffffffffffffff1673ffffffffffffffffffffffffffffffffffffffff166108fc60096000848152602001908152602001600020600701549081150290604051600060405180830381858888f19350505050158015612895573d6000803e3d6000fd5b50336009600083815260200190815260200160002060080160016101000a81548173ffffffffffffffffffffffffffffffffffffffff021916908373ffffffffffffffffffffffffffffffffffffffff16021790555060006009600083815260200190815260200160002060080160006101000a81548160ff02191690831515021790555060008060008061293f600960008781526020019081526020016000206002015461078a565b93506129606009600087815260200190815260200160002060020154610911565b9250612981600960008781526020019081526020016000206005015461078a565b91506129a26009600087815260200190815260200160002060050154610911565b90506000808590505b83811015612a675760008590505b83811015612a59576129cb82826109a0565b92503360056000600960008c8152602001908152602001600020600101600087815260200190815260200160002060000154815260200190815260200160002060030160006101000a81548173ffffffffffffffffffffffffffffffffffffffff021916908373ffffffffffffffffffffffffffffffffffffffff16021790555080806001019150506129b9565b5080806001019150506129ab565b507fd3833180b5af11196fdfecf7080e162a9cf25161cddd05543e698438dadcb04b866009600089815260200190815260200160002060070154600960008a815260200190815260200160002060080160019054906101000a900473ffffffffffffffffffffffffffffffffffffffff16604051808481526020018381526020018273ffffffffffffffffffffffffffffffffffffffff1673ffffffffffffffffffffffffffffffffffffffff168152602001935050505060405180910390a1505050505050565b60008083118015612b405750600082115b8015612b4e57506103e88311155b8015612b5c57506103e88211155b612bb1576040517f08c379a0000000000000000000000000000000000000000000000000000000008152600401808060200182810382526047815260200180612f4c6047913960600191505060405180910390fd5b6000809050607d84111580612bc757508361036b105b80612bd35750607d8311155b80612bdf57508261036b105b15612c04576003600081548110612bf257fe5b90600052602060002001549050612cd8565b83607d108015612c16575061036b8411155b8015612c22575082607d105b8015612c2f575061017783105b80612c63575083607d108015612c47575061036b8411155b8015612c54575082610271105b8015612c62575061036b8311155b5b15612c88576003600181548110612c7657fe5b90600052602060002001549050612cd7565b83607d108015612c9a575061036b8411155b8015612ca7575082610177105b8015612cb557506102718311155b15612cd6576003600281548110612cc857fe5b906000526020600020015490505b5b5b8091505092915050565b60015481565b6040518060e00160405280600081526020016000815260200160008152602001600073ffffffffffffffffffffffffffffffffffffffff168152602001600081526020016000151581526020016000151581525090565b60405180610120016040528060008152602001600081526020016000815260200160008152602001600081526020016000815260200160008152602001600015158152602001600073ffffffffffffffffffffffffffffffffffffffff168152509056fe4572726f722c20796f7520617265206e6f7420746865206f776e6572206f662074686520636f6e74726163742e4572726f722c20796f7520617265206e6f74207468652061726561206f776e65722e4572726f722c2061726561206e6f7420617661696c61626c6520666f722073616c652e4572726f722c20746865206d6573736167652076616c7565206973206c6f776572207468616e207468652070726963652061736b65642e4572726f722c206174206c65617374206f6e6520706978656c20686173206e6f74206265656e20637265617465642e4572726f722c20746865206f776e6572206973206e6f742074686520636f6e7472616374206f776e65722e4572726f722c207468652061646472657373206973206e6f7420746865206f776e65722773206f6e652e4572726f722c2074686520706978656c20796f752063686f6f7365206973206e6f7420617661696c61626c6520666f722073616c652e4572726f722c206e6f20636f72726573706f6e64696e6720706978656c2069642e4572726f722c20796f757220617265206e6f742074686520706978656c206f776e65722e4572726f722c206c696e6520616e6420636f6c756d6e20696e64657865732073686f756c64206265206265747765656e203120616e6420313030302028696e636c75646564292e4572726f722c20796f7520617265206e6f7420746865206f776e6572206f66206174206c65617374206f6e6520706978656c206f662074686520617265612e4572726f722c206c696e6520616e6420636f6c756d6e20696e6465786573206f7574206f662072616e67652ea2646970667358221220e3a0b0978cac18f27dc3caa9169e0a5da67046fd99802ff3ba4180621f20c52664736f6c63430006000033",
  "source": "pragma solidity ^0.6.0;\r\n\r\n//@title One Million Dollar Project\r\n\r\ncontract PixelToken{\r\n\r\n    uint256 constant lignesPixelImage = 1000;\r\n    uint256 constant colonnesPixelImage = 1000;\r\n    uint256 totalToken;\r\n    uint public nbOfTokens = 0;\r\n    address payable contractOwner;\r\n    string constant symbol = \"PTC\";\r\n    //we choose the price according to the area of the pixel\r\n    uint[] startingPrices = [10,20,50];   //price in wei (10^-18 eth)\r\n    bool userAnswer;\r\n\r\n    constructor() public {\r\n        contractOwner = msg.sender;\r\n        totalToken = lignesPixelImage * colonnesPixelImage;\r\n        // for(uint256 i = 1; i <= lignesPixelImage; i++){\r\n        //     for(uint256 j = 1; j <= colonnesPixelImage; j++){\r\n        //         createPixel(i, j, getInitialPixelPrice(i, j),true); //true = we put directly the created pixel \"on sale\"\r\n        //     }\r\n        // }\r\n    }\r\n\r\n    struct Pixel\r\n    {\r\n        uint256 id;\r\n        uint256 line;\r\n        uint256 column;\r\n        address payable owner;\r\n        uint priceWEI;\r\n        bool isAvailableForSale;\r\n        bool hasBeenCreated;\r\n    }\r\n\r\n    mapping (uint256 => Pixel) public pixelList;   // pixelId => Pixel\r\n    mapping (uint => Pixel) public pixelForSale;\r\n    mapping (uint => bool) public linesNotAvailable;\r\n    mapping (uint => bool) public columnsNotAvailable;\r\n\r\n    /* GET THE INITIAL PRICE ACCORDING TO THE PIXEL COORD */\r\n    function getInitialPixelPrice(uint line, uint column) public view returns(uint){\r\n        require(line > 0 && column > 0 && line <= 1000 && column <= 1000,\r\n        \"Error, line and column indexes should be between 1 and 1000 (included).\");\r\n        uint price = 0;\r\n        if( (line <= 125) || (875 < line) || (column <= 125) || (875<column)){\r\n            price = startingPrices[0];\r\n        }\r\n        else if ( (125<line && line <= 875 && 125 < column && column < 375) || (125<line && line <= 875 && 625 < column && column <= 875)){\r\n            price = startingPrices[1];\r\n        }\r\n        else if( 125 < line && line <= 875 && 375 < column && column <= 625){\r\n            price = startingPrices[2];\r\n        }\r\n        return price;\r\n    }\r\n\r\n    /* CREATE TOKEN */\r\n    event newTokenCreated(uint id);\r\n    event pixelSetForSale(uint _id,uint _price, address _sellerAddress);\r\n\r\n    modifier onlyContractOwner(){\r\n        require(msg.sender == contractOwner, \"Error, you are not the owner of the contract.\");\r\n        _;\r\n    }\r\n    \r\n    function createPixel(uint256 _line, uint256 _column, bool _onSale) public onlyContractOwner() {\r\n        require(nbOfTokens < totalToken,\"Error, can't create more pixel.\");\r\n        require( 0 < _line && _line < 1000 && 0 < _column && _column < 1000,\r\n        \"Error, line and column indexes out of range.\");\r\n        require( linesNotAvailable[_line] == false && columnsNotAvailable[_column] == false,\r\n        \"Error, the pixel already exists.\");\r\n        nbOfTokens++;\r\n        Pixel memory p;\r\n        p.id = nbOfTokens;\r\n        p.line = _line;\r\n        p.column = _column;\r\n        p.owner = contractOwner;\r\n        p.priceWEI = getInitialPixelPrice(_line,_column);\r\n        p.hasBeenCreated = true;\r\n        if (_onSale == true) {  //add the pixel to the sale list\r\n            p.isAvailableForSale = true;\r\n            pixelForSale[p.id] = p;\r\n            emit pixelSetForSale (p.id,p.priceWEI,p.owner);\r\n        }\r\n        pixelList[p.id] = p;\r\n        linesNotAvailable[_line] = true;\r\n        columnsNotAvailable[_column] = true;\r\n        emit newTokenCreated(p.id);\r\n    }\r\n\r\n    /* GET THE COORD OF A PIXEL THANKS TO HIS ID */\r\n\r\n    function getPixelLine(uint _pixelId) public view returns (uint){\r\n        require(pixelList[_pixelId].id != 0,\"Error, no corresponding pixel id.\");\r\n        return pixelList[_pixelId].line;\r\n    }\r\n    function getPixelCol(uint _pixelId) public view returns (uint){\r\n        require(pixelList[_pixelId].id != 0,\"Error, no corresponding pixel id.\");\r\n        return pixelList[_pixelId].column;\r\n    }\r\n\r\n    /* BUY TOKEN in the ICO */\r\n    modifier isAvailableForSale(uint _id){\r\n        require( pixelList[_id].isAvailableForSale == true,\r\n        \"Error, the pixel you choose is not available for sale.\");\r\n        _;\r\n    }\r\n    modifier isRightPrice(uint _id){\r\n        require(pixelList[_id].priceWEI <= msg.value, \"Error, the message value is lower than the price asked.\");\r\n        _;\r\n    }\r\n    modifier isContractOwner(uint _pixelId){\r\n        require(pixelList[_pixelId].owner == contractOwner,\"Error, the owner is not the contract owner.\");\r\n        _;\r\n    }\r\n    event pixelBought(uint _pixelId, address _newOwner);\r\n\r\n    function buyPixel(uint _pixelId) public payable isAvailableForSale(_pixelId) isRightPrice(_pixelId) isContractOwner(_pixelId){\r\n        // contractOwner.transfer(pixelList[_pixelId].priceWEI);\r\n        pixelList[_pixelId].owner = msg.sender;\r\n        pixelList[_pixelId].isAvailableForSale = false;\r\n        delete pixelForSale[_pixelId]; //delete the pixel from the \"on sale\" mapping\r\n        emit pixelBought(_pixelId, msg.sender);\r\n    }\r\n\r\n\r\n    /* MODIFY PRICE -   The contract owner can modify the price only if he is the owner of the pixel\r\n                        (i.e.the pixel has not been sell yet).\r\n                        In the other side, a token owner (!= contractOwner) can't modify the price of his token\r\n                        without puting it in sale status.\r\n    */\r\n\r\n    modifier onlyPixelOwner(uint _id){\r\n        require(pixelList[_id].owner == msg.sender,\"Error, your are not the pixel owner.\");\r\n        _;\r\n    }\r\n    event tokenPriceModified(uint id, uint newPrice);\r\n\r\n    // function modifyPrice(uint256 _id, uint _newWeiPrice) public onlyContractOwner() onlyPixelOwner(_id) {\r\n    //     pixelList[_id].priceWEI = _newWeiPrice;\r\n    //     emit tokenPriceModified(_id,_newWeiPrice);\r\n    // }\r\n\r\n\r\n    /* SEARCH A TOKEN BY COORD */\r\n    function searchTokenByCoord(uint256 _line, uint256 _column) public view returns (int){\r\n        int256 idSearched = -1;\r\n        for(uint8 i = 0; i < totalToken; i++){\r\n            if(pixelList[i].line == _line && pixelList[i].column == _column){\r\n                idSearched = i;\r\n            }\r\n        }\r\n        require(idSearched != -1,\"Error, pixel not found.\");\r\n        return idSearched;\r\n    }\r\n\r\n\r\n    /* MODIFY TOKEN PRICE */\r\n    event pixelPriceModified(uint _idPixel, uint _newWeiPice);\r\n\r\n    function modifyPixelPrice(uint _idPixel, uint _newWeiPice) public onlyPixelOwner(_idPixel){\r\n        pixelList[_idPixel].priceWEI = _newWeiPice;\r\n        emit pixelPriceModified(_idPixel,_newWeiPice);\r\n    }\r\n\r\n    /* PUT A TOKEN FOR SALE*/\r\n    function setPixelForSale(uint _idPixel) public onlyPixelOwner(_idPixel){\r\n        pixelList[_idPixel].isAvailableForSale = true;\r\n        pixelForSale[_idPixel] = pixelList[_idPixel];\r\n        emit pixelSetForSale(_idPixel,pixelList[_idPixel].priceWEI,msg.sender);\r\n    }\r\n\r\n    /* BUY PIXEL FOR SALE */\r\n    event pixelBoughtOnSale(uint _id, uint _price, address _newOwner);\r\n\r\n    modifier isRightSalePrice(uint _id, uint _price){\r\n        require(pixelList[_id].priceWEI <= _price, \"Error, the message value is lower than the price asked.\");\r\n        _;\r\n    }\r\n    modifier isPixelOwner(uint _id, address payable _pixelOwner){\r\n        require(pixelList[_id].owner == _pixelOwner, \"Error, the address is not the owner's one.\");\r\n        _;\r\n    }\r\n    function buyPixelForSale(uint _pixelId, address payable _pixelOwner, uint _weiPrice) public\r\n        isAvailableForSale(_pixelId) isRightSalePrice(_pixelId,_weiPrice) isPixelOwner(_pixelId,_pixelOwner){\r\n\r\n        _pixelOwner.transfer(_weiPrice);\r\n        pixelList[_pixelId].owner = msg.sender;\r\n        pixelList[_pixelId].isAvailableForSale = false;\r\n\r\n        delete pixelForSale[_pixelId];\r\n        emit pixelBoughtOnSale(_pixelId,pixelList[_pixelId].priceWEI,msg.sender);\r\n    }\r\n\r\n    /* LIST OF PIXELS ON SALE */\r\n    // function getForSalePixels() public view returns(mapping(uint => Pixel) memory){\r\n    //     return pixelForSale;\r\n    // }\r\n\r\n    /* BUY RECTANGULAR AREAS -  1) For ICO\r\n                                2) To buy pixels from another owner.\r\n    */\r\n\r\n    struct Area{\r\n        uint id;\r\n        mapping (uint256 => Pixel) pixels;\r\n        uint topLeftCornerId;\r\n        uint topRightCornerId;\r\n        uint bottomLeftCornerId;\r\n        uint bottomRightCornerId;\r\n        uint totalAreaPrice;    //in WEI\r\n        uint salePrice;\r\n        bool isAvailableForSale;\r\n        address payable owner;\r\n    }\r\n    mapping (uint => Area) areaList;\r\n    uint nbOfAreasDeclared = 0;\r\n    event areaDeclared(uint _areaId, address _owner);\r\n\r\n    modifier checkIfAreaOwner(uint a, uint b, uint c, uint d){\r\n        require( getPixelLine(a) == getPixelLine(b) && getPixelLine(c) == getPixelLine(d) &&\r\n                getPixelCol(a) == getPixelCol(c) && getPixelCol(b) == getPixelCol(d),\r\n                \"Error, abcd is not a rectangle.\");\r\n        uint x; uint y; uint X; uint Y;\r\n        x = getPixelLine(a);\r\n        y = getPixelCol(a);\r\n        X = getPixelLine(d);\r\n        Y = getPixelCol(d);\r\n        uint _pixelId;\r\n        for(uint i = x; i < X; i ++){\r\n            for (uint j = y; j < Y;j ++){\r\n                _pixelId = uint(searchTokenByCoord(i,j));\r\n                require(pixelList[_pixelId].hasBeenCreated == true,\"Error, at least one pixel has not been created.\");\r\n                require(pixelList[_pixelId].owner == msg.sender,\"Error, you are not the owner of at least one pixel of the area.\");\r\n            }\r\n        }\r\n        _;\r\n    }\r\n\r\n    function declareArea(uint _topLeftCorner, uint _topRightCorner, uint _bottomLeftCorner, uint _bottomRightCorner) public\r\n                checkIfAreaOwner(_topLeftCorner,_topRightCorner,_bottomLeftCorner,_bottomRightCorner){\r\n        Area memory newArea;\r\n        nbOfAreasDeclared ++;\r\n        newArea.id = nbOfAreasDeclared;\r\n        newArea.topLeftCornerId = _topLeftCorner;\r\n        newArea.topRightCornerId = _topRightCorner;\r\n        newArea.bottomLeftCornerId = _bottomLeftCorner;\r\n        newArea.bottomRightCornerId = _bottomRightCorner;\r\n        areaList[newArea.id] = newArea;\r\n        areaList[newArea.id].totalAreaPrice = getAreaPrice(newArea.id);\r\n        areaList[newArea.id].salePrice = areaList[newArea.id].totalAreaPrice;\r\n        setAreaPixelsList(newArea.id);\r\n        emit areaDeclared(newArea.id,msg.sender);\r\n    }\r\n\r\n    function getAreaPrice(uint _areaId) public view returns(uint){\r\n        uint x; uint y; uint X; uint Y;\r\n        x = getPixelLine(areaList[_areaId].topLeftCornerId);\r\n        y = getPixelCol(areaList[_areaId].topLeftCornerId);\r\n        X = getPixelLine(areaList[_areaId].bottomRightCornerId);\r\n        Y = getPixelCol(areaList[_areaId].bottomRightCornerId);\r\n        uint _totalPrice;\r\n        uint _pixelId;\r\n        for(uint i = x; i < X; i ++){\r\n            for (uint j = y; j < Y;j ++){\r\n                _pixelId = uint(searchTokenByCoord(i,j));\r\n                _totalPrice += pixelList[_pixelId].priceWEI;\r\n            }\r\n        }\r\n        return _totalPrice;\r\n    }\r\n\r\n    function setAreaPixelsList(uint _areaId) public {\r\n        uint x; uint y; uint X; uint Y;\r\n        x = getPixelLine(areaList[_areaId].topLeftCornerId);\r\n        y = getPixelCol(areaList[_areaId].topLeftCornerId);\r\n        X = getPixelLine(areaList[_areaId].bottomRightCornerId);\r\n        Y = getPixelCol(areaList[_areaId].bottomRightCornerId);\r\n        uint _pixelId;\r\n        for(uint i = x; i < X; i ++){\r\n            for (uint j = y; j < Y;j ++){\r\n                _pixelId = uint(searchTokenByCoord(i,j));\r\n                areaList[_areaId].pixels[_pixelId] = pixelList[_pixelId];\r\n            }\r\n        }\r\n    }\r\n\r\n    /* SELL AREA */\r\n    modifier onlyAreaOwner(uint _id){\r\n        require(areaList[_id].owner == msg.sender,\"Error, you are not the area owner.\");\r\n        _;\r\n    }\r\n    event areaForSale(uint _areaId, uint _price);\r\n\r\n    function setAreaForSale(uint _areaId) public onlyAreaOwner(_areaId){\r\n        areaList[_areaId].isAvailableForSale = true;\r\n        uint x; uint y; uint X; uint Y;\r\n        x = getPixelLine(areaList[_areaId].topLeftCornerId);\r\n        y = getPixelCol(areaList[_areaId].topLeftCornerId);\r\n        X = getPixelLine(areaList[_areaId].bottomRightCornerId);\r\n        Y = getPixelCol(areaList[_areaId].bottomRightCornerId);\r\n        uint _pixelId;\r\n        for(uint i = x; i < X; i ++){\r\n            for (uint j = y; j < Y;j ++){\r\n                _pixelId = uint(searchTokenByCoord(i,j));\r\n                pixelList[areaList[_areaId].pixels[_pixelId].id].isAvailableForSale = true;\r\n            }\r\n        }\r\n        emit areaForSale(_areaId,areaList[_areaId].salePrice);\r\n    }\r\n\r\n    // event areaSalePriceModified(uint _areaId, uint _price);\r\n\r\n    // function changeAreaPrice(uint _areaId, uint _newPrice) public onlyAreaOwner(_areaId){\r\n    //     areaList[_areaId].salePrice = _newPrice;\r\n    //     emit areaSalePriceModified(_areaId,_newPrice);\r\n    // }\r\n\r\n    event areaBougth(uint _areaId, uint _price, address _newOwner);\r\n\r\n    function buyArea(uint _areaId) public payable{\r\n        require(msg.value >= areaList[_areaId].salePrice,\"Error, not enough money sent.\");\r\n        require(areaList[_areaId].isAvailableForSale = true,\"Error, area not available for sale.\");\r\n        areaList[_areaId].owner.transfer(areaList[_areaId].salePrice);\r\n        areaList[_areaId].owner = msg.sender;\r\n        areaList[_areaId].isAvailableForSale = false;\r\n        uint x; uint y; uint X; uint Y;\r\n        x = getPixelLine(areaList[_areaId].topLeftCornerId);\r\n        y = getPixelCol(areaList[_areaId].topLeftCornerId);\r\n        X = getPixelLine(areaList[_areaId].bottomRightCornerId);\r\n        Y = getPixelCol(areaList[_areaId].bottomRightCornerId);\r\n        uint _pixelId;\r\n        for(uint i = x; i < X; i ++){\r\n            for (uint j = y; j < Y;j ++){\r\n                _pixelId = uint(searchTokenByCoord(i,j));\r\n                pixelList[areaList[_areaId].pixels[_pixelId].id].owner = msg.sender;\r\n            }\r\n        }\r\n        emit areaBougth(_areaId,areaList[_areaId].salePrice,areaList[_areaId].owner);\r\n    }\r\n\r\n    event areaUndeclared(uint _id);\r\n\r\n    function undeclaredArea(uint _areaId) public onlyAreaOwner(_areaId){\r\n        delete areaList[_areaId];\r\n        emit areaUndeclared(_areaId);\r\n    }\r\n\r\n}",
  "sourcePath": "/mnt/c/Users/marti/Desktop/ESILV/PI/OneMillionDollarProject/Dapp/contracts/PixelToken.sol",
  "compiler": {
    "name": "solc",
    "version": "0.6.0+commit.26b70077.Emscripten.clang"
  },
  "schemaVersion": "3.0.23",
  "updatedAt": "2020-03-25T19:52:23.796Z",
  "networkType": "ethereum",
  "devdoc": {
    "methods": {}
  },
  "userdoc": {
    "methods": {}
  }
}